:04000000F8EF01F024
:10000800F2A409D0821EF2940B0ED76EDC0ED66EC7
:08001800010E0001876F1100C9
:0A002000530E0D6E0D2EFED71200D8
:10002A00240E0C6EB50E0D6E0D2EFED70C2EFCD7BF
:06003A00000000001200AE
:0C004000000000000000000000001200A2
:10004C000001F3BF02D0819E01D0818EF3BD02D09E
:10005C00819C01D0818CF3BB02D0819A01D0818A22
:10006C00F3B902D0819801D08188DBB102D08184B0
:10007C0001D081948186DEDF8196F3B702D0819E18
:10008C0001D0818EF3B502D0819C01D0818CF3B369
:10009C0002D0819A01D0818AF3B102D0819801D02B
:1000AC008188DBB102D0818401D081948186C2DF4A
:0E00BC008196DBA102D0B3DF01D0ACDF1200D1
:1000CA000001EE6BF06BF16B100EF26F040EF15D36
:1000DA001DE2F00E836EF21D956EADDFACDF0F0EE2
:1000EA008314006E00C0EFF000520AE0F0C0EEF098
:1000FA00EF5304E0EF33EF9FEE2BFAD7040EF16FC4
:10010A00F237F291040EF027F12BE0D7EEC000F09F
:02011A001200D1
:0E011C000001DB91EEC0F3F093DFDB811200F7
:0E012A00ACB202D00000FCD7EEC0ADFF120058
:0C013800100E0D6E0D2EFED70000120000
:1001440010D0800E0001E96F1AD0C00EE96F17D0ED
:10015400940EE96F14D0D40EE96F11D0800EE96FBC
:100164000ED00001E951010AECE0E951020AEDE088
:10017400E951030AEDE0E951040AEDE0EFD7EA059D
:10018400006EE951002600C0E9F0DB8100C0F3F005
:0E0194005BDFDB91EBC0F3F057DFDB81120085
:1001A200B70EE16E000EE26E1650E126D8B0E22ADA
:0C01B200E9C0E6FF1650010F156E1200A8
:0A01BE00000E9EBA010E006E120042
:1001C80080DF00C0E9F00F0E8314006E02E0B0DF9C
:0801D800FAD7E9C000F01200A3
:1001E000939693949398939A939C939E81968194DB
:1001F000819E819C819A819818DF17DF16DF818AA2
:10020000818881861DDF819610DF818619DF8196C6
:100210000CDF818615DF819608DF8198818610DFEB
:10022000819603DF81860CDF8196819A818E81869B
:1002300007DF8196FADE819E8188818601DF8196C3
:1002400081988186FDDE8196F0DE8186F9DE8196D9
:1002500081888186F5DE8196E8DE81988186F0DEF0
:100260008196818E818C818A81888186E9DE819662
:08027000DCDE0001DB8112005D
:100278002A0E0001D76F010ED86FEE0ED96F000E4F
:10028800DA6F560EDC6F030EDD6F000EDE6F000EA8
:10029800DF6FBE0EE46F010EE56F000EE66F000E15
:1002A800E76FFF0EE06FFF0EE16F000EE26F000ECA
:1002B800E36FAC8A900EAB6E948E949C9EAA03D08A
:0802C800AECF00F0FBD71200DD
:0602D000FF0E956E120006
:1002D6000900F5CFE6FF0006FBE10106F9E1120091
:1002E600D58ED59CD59AD598D596D584D592D590C8
:0E02F6000B0ED76EDC0ED66EF28AF29412005A
:100304000001EC6BE9C0E9FFEAC0EAFFEECFEBF0D5
:10031400EB51000A0EE0EBC0EEF005DF0001EC2B20
:10032400EC51E925E96E000EEA21EA6EEECFEBF01E
:04033400EFD71200ED
:100338001750181806E0010E0001B66F162A17C0EC
:0403480018F0120097
:0A034C00100E0001F36F7CDE1200BA
:10035600AECF01F0ABA202D0AB98AB8801C000F0E3
:02036600120083
:0A0368000B0ED76EDC0ED66E1200ED
:1003720010D0800E0001E96F1AD0C00EE96F17D0BD
:10038200940EE96F14D0D40EE96F11D0800EE96F8C
:100392000ED00001E951010AECE0E951020AEDE058
:1003A200E951030AEDE0E951040AEDE0EFD7EA056D
:1003B200006EE951002600C0E9F000C0F3F045DE0E
:1003C200DB91ED6BED51EB25E96E000EEC21EA6E4F
:1003D200EE520BE0ED51EB25E96E000EEC21EA6ED8
:0E03E200EECFEEF09ADEED2BEDD7DB811200B0
:1003F00029EC06F0F28E060EC16EFF0E926E946A24
:10040000FF0E826E948E6FDF966A84920001B66B47
:100410005FDF966A68DFE4DE010EF36F17DE0E0E13
:10042000F36F14DE810EAF6EAC8426DF030E0B6E0D
:100430008A0E0C6E550E0D6E0D2EFED70C2EFCD7AF
:100440000B2EFAD700000000B00E0001E96F000E7D
:10045000EA6F58DF010EE96F010EEA6F670EEB6F6E
:10046000000EEC6F86DFF28EAFDE00C017F000509A
:10047000010A0EE1010E0001F36FE8DD020EE96FE3
:10048000010EEA6F410EEB6F000EEC6F72DF47D08A
:100490001750050A43E10001010EF36FD7DD020E8C
:1004A000E96F010EEA6F190EEB6F000EEC6F61DF62
:1004B000020EF36FCBDD83DE005203E04CDF00C0A1
:1004C000E8F00001E851240AF6E179DE00520CE080
:1004D00042DF00C0E8F00050230A06E0E8C0EEF07A
:1004E0001DDEE8C0EEF021DE0001E851230AEDE157
:1004F000E86B280EE85D05E2060EEE6F0FDEE82BD6
:10050000F8D7020EE96F010EEA6F880EEB6F000E4E
:10051000EC6F2FDF020EF36F99DDCDD7A5D754DE38
:1005200000C017F000018751010A03E1176A876BC9
:1005300003D01750000AF3E017DF30D0310E176EEA
:100540005DD0340E176E5AD0370E176E57D0530E3B
:10055000176E54D0320E176E51D0350E176E4ED026
:10056000380E176E4BD0300E176E48D0330E176E04
:1005700045D0360E176E42D0390E176E3FD0430E5F
:10058000176E3CD0550E176E39D0440E176E36D00C
:100590004D0E176E33D0450E176E30D01750010A2E
:1005A000CDE01750020ACDE01750030ACDE01750F6
:1005B000040ACDE01750050ACDE01750060ACDE039
:1005C0001750070ACDE01750080ACDE01750090A66
:1005D000CDE017500A0ACDE017500B0ACDE01750B6
:1005E0000C0ACDE017500D0ACDE017500E0ACDE0F1
:1005F00017500F0ACDE01750100ACDE01750000A2F
:1006000008E11750181805E00001010EB66F17C079
:1006100018F01750450A14E10001B70EE16E000E04
:10062000E26E1550E126D8B0E22AE66A240EB76FD2
:10063000B70EE96F000EEA6F65DE230EEE6F75DD13
:100640001750310A23E178DE0001B651030A02E1B6
:10065000010EB66FB651010A0BE1010EE96F16C02B
:10066000EAF0310EEB6F6EDD310EE96F9ADD0DD0E1
:10067000B651020A0AE1010EE96F16C0EAF02E0E29
:10068000EB6F60DD2E0EE96F8CDDB62B1750320A52
:100690003FE152DE0001B651050A02E1010EB66FDC
:1006A000B651010A0BE1010EE96F16C0EAF0410EE6
:1006B000EB6F48DD410EE96F74DD29D0B651020AB7
:1006C0000BE1010EE96F16C0EAF0420EEB6F3ADD66
:1006D000420EE96F66DD1BD0B651030A0BE1010E35
:1006E000E96F16C0EAF0430EEB6F2CDD430EE96FA5
:1006F00058DD0DD0B651040A0AE1010EE96F16C0AB
:10070000EAF0320EEB6F1EDD320EE96F4ADDB62BDA
:100710001750330A3FE110DE0001B651050A02E12D
:10072000010EB66FB651010A0BE1010EE96F16C05A
:10073000EAF0440EEB6F06DD440EE96F32DD29D09E
:10074000B651020A0BE1010EE96F16C0EAF0450E40
:10075000EB6FF8DC450EE96F24DD1BD0B651030AC0
:100760000BE1010EE96F16C0EAF0460EEB6FEADC12
:10077000460EE96F16DD0DD0B651040A0AE1010EEE
:10078000E96F16C0EAF0330EEB6FDCDC330EE96F75
:1007900008DDB62B1750340A3FE1CEDD0001B6511B
:1007A000050A02E1010EB66FB651010A0BE1010E16
:1007B000E96F16C0EAF0470EEB6FC4DC470EE96F35
:1007C000F0DC29D0B651020A0BE1010EE96F16C028
:1007D000EAF0480EEB6FB6DC480EE96FE2DC1BD0A6
:1007E000B651030A0BE1010EE96F16C0EAF0490E9B
:1007F000EB6FA8DC490EE96FD4DC0DD0B651040ACA
:100800000AE1010EE96F16C0EAF0340EEB6F9ADCD4
:10081000340EE96FC6DCB62B1750350A3FE18CDD8C
:100820000001B651050A02E1010EB66FB651010A88
:100830000BE1010EE96F16C0EAF04A0EEB6F82DCA5
:100840004A0EE96FAEDC29D0B651020A0BE1010E67
:10085000E96F16C0EAF04B0EEB6F74DC4B0EE96FDC
:10086000A0DC1BD0B651030A0BE1010EE96F16C0E4
:10087000EAF04C0EEB6F66DC4C0EE96F92DC0DD0AB
:10088000B651040A0AE1010EE96F16C0EAF0350E0E
:10089000EB6F58DC350EE96F84DCB62B1750360A47
:1008A0003FE14ADD0001B651050A02E1010EB66FD3
:1008B000B651010A0BE1010EE96F16C0EAF04D0EC8
:1008C000EB6F40DC4D0EE96F6CDC29D0B651020AAB
:1008D0000BE1010EE96F16C0EAF04E0EEB6F32DC51
:1008E0004E0EE96F5EDC1BD0B651030A0BE1010E20
:1008F000E96F16C0EAF04F0EEB6F24DC4F0EE96F84
:1009000050DC0DD0B651040A0AE1010EE96F16C0A1
:10091000EAF0360EEB6F16DC360EE96F42DCB62BD2
:100920001750370A54E108DD0001B651060A02E10A
:10093000010EB66FB651010A0CE1010EE96F16C047
:10094000EAF0500EEB6FA2EC00F0500EE96F29DCDC
:100950003DD0B651020A0CE1010EE96F16C0EAF073
:10096000510EEB6FA2EC00F0510EE96F1ADC2ED0A5
:10097000B651030A0CE1010EE96F16C0EAF0520EFF
:10098000EB6FA2EC00F0520EE96F0BDC1FD0B651FA
:10099000040A0DE1010EE96F16C0EAF0530EEB6F89
:1009A000A2EC00F0530EE96FD1EC00F00FD0B6517D
:1009B000050A0CE1010EE96F16C0EAF0370EEB6F85
:1009C000A2EC00F0370EE96FD1EC00F0B62B175017
:1009D000380A47E1B1DC0001B651050A02E1010E17
:1009E000B66FB651010A0DE1010EE96F16C0EAF0CB
:1009F000540EEB6FA2EC00F0540EE96FD1EC00F056
:100A00002FD0B651020A0DE1010EE96F16C0EAF0CF
:100A1000550EEB6FA2EC00F0550EE96FD1EC00F033
:100A20001FD0B651030A0DE1010EE96F16C0EAF0BE
:100A3000560EEB6FA2EC00F0560EE96FD1EC00F011
:100A40000FD0B651040A0CE1010EE96F16C0EAF0AE
:100A5000380EEB6FA2EC00F0380EE96FD1EC00F02D
:100A6000B62B1750390A57E167DC0001B651060A68
:100A700002E1010EB66FB651010A0DE1010EE96FF8
:100A800016C0EAF0570EEB6FA2EC00F0570EE96FBC
:100A9000D1EC00F03FD0B651020A0DE1010EE96F32
:100AA00016C0EAF0580EEB6FA2EC00F0580EE96F9A
:100AB000D1EC00F02FD0B651030A0DE1010EE96F21
:100AC00016C0EAF0590EEB6FA2EC00F0590EE96F78
:100AD000D1EC00F01FD0B651040A0DE1010EE96F10
:100AE00016C0EAF05A0EEB6FA2EC00F05A0EE96F56
:100AF000D1EC00F00FD0B651050A0CE1010EE96F00
:100B000016C0EAF0390EEB6FA2EC00F0390EE96F77
:100B1000D1EC00F0B62B1750300A27E10DDC0001B4
:100B2000B651030A02E1010EB66FB651010A0DE19A
:100B3000010EE96F16C0EAF0300EEB6FA2EC00F088
:100B4000300EE96FD1EC00F00FD0B651020A0CE183
:100B5000010EE96F16C0EAF0200EEB6FA2EC00F078
:100B6000200EE96FD1EC00F0B62B1750430A19E1C3
:100B70001650000A16E0A6EC01F0010EE96F16C04F
:100B8000EAF0200EEB6FA2EC00F01606A6EC01F0E6
:100B9000010EB66F17C018F0162AE96BD1EC00F001
:100BA00016060001B651FF0AD8B4B66BB8D4FFD709
:100C520010EE15F0A10E006E010E016EB00EF66ED2
:0E0C62000B0EF76E000EF86E6BEC01F0120038
:020006002000D8
:010BB0000143
:010BB1000043
:010BB2000042
:010BB3000041
:100BB400524543454956494E47204D4F44453A50C6
:100BC4005245535320524553455420464F522043D7
:080BD40048414E47494E47001D
:100BDC0053454E44494E47204D4F44453A5052459B
:100BEC00535320524553455420464F5220434841BD
:060BFC004E47494E470080
:100C0200313D53454E44494E47204D4F44453A32BB
:100C12003D524543454956494E47204D4F444500B4
:010C220000D1
:100C2300524543454956494E47204D4F44453A5056
:100C33005245535320524553455420464F52204367
:080C430048414E47494E4700AD
:060C4B0048454C4C4F002F
:020000040030CA
:0D000100220F0EFF0181FF0FC00FE00F4026
:00000001FF
