:04000000F0EF01F02C
:10000800F2A407D0F2940B0ED76EDC0ED66E010E5A
:04001800196E11004C
:0C001C00100E0D6E0D2EFED7000012001D
:10002800080E0C6E230E0D6E0D2EFED70C2EFCD76F
:020038001200B4
:04003A0000001200B0
:10003E000001C3BF02D0819E01D0818EC3BD02D00C
:10004E00819C01D0818CC3BB02D0819A01D0818A60
:10005E00C3B902D0819801D08188B7B102D0818412
:10006E0001D081948186E2DF8196C3B702D0819E52
:10007E0001D0818EC3B502D0819C01D0818CC3B3D7
:10008E0002D0819A01D0818AC3B102D0819801D069
:10009E008188B7B102D0818401D081948186C6DF78
:0E00AE008196B7A102D0B9DF01D0B1DF1200F8
:1000BC000001BE6BC06BC16B100EC26F040EC15D34
:1000CC001DE2F00E836EC21D956EB1DFB0DF0F0E18
:1000DC008314006E00C0BFF000520AE0C0C0BEF036
:1000EC00BF5304E0BF33BF9FBE2BFAD7040EC16FC2
:1000FC00C237C291040EC027C12BE0D7BEC000F09E
:02010C001200DF
:0E010E000001B791BEC0C3F093DFB7811200AD
:0E011C00ACB202D00000FCD7BEC0ADFF120096
:0A012A00030E0D6E0D2EFED712001D
:100134001750161806E0010E0001B66F182A17C0F2
:0401440016F012009F
:1001480010D0800E0001B96F1AD0C00EB96F17D049
:10015800940EB96F14D0D40EB96F11D0800EB96F48
:100168000ED00001B951010AECE0B951020AEDE0E4
:10017800B951030AEDE0B951040AEDE0EFD7BA0529
:10018800006EB951002600C0B9F0B78100C0C3F0B5
:0E01980052DFB791BBC0C3F04EDFB78112003B
:0A01A600000E9EBA010E006E12005A
:1001B00085DF00C0B9F00F0E8314006E02E0B5DFDA
:0801C000FAD7B9C000F01200EB
:1001C800939693949398939A939C939E81968194F3
:1001D800819E819C819A819823DF22DF21DF818A99
:1001E8008188818626DF81961BDF818622DF8196C2
:1001F80017DF81861EDF819613DF8198818619DFDC
:1002080081960EDF818615DF8196819A818E81869F
:1002180010DF819605DF819E818881860ADF8196BD
:100228008198818606DF8196FBDE818602DF8196D2
:1002380081888186FEDE8196F3DE81988186F9DEEB
:100248008196818E818C818A81888186F2DE819671
:08025800E7DE0001B78112008E
:100260001C0E0001866F010E876FBE0E886F000E98
:10027000896F340E8A6F030E8B6F000E8C6F000E29
:100280008D6FA60E926F010E936F000E946F000E8D
:10029000956FFF0E8E6FFF0E8F6F000E906F000E2A
:1002A000916FAC8A900EAB6E948E949C9EAA03D0F4
:0802B000AECF00F0FBD71200F5
:0602B800FF0E956E12001E
:1002BE000900F5CFE6FF0006FBE10106F9E11200A9
:1002CE00D58ED59CD59AD598D596D584D592D590E0
:0E02DE000B0ED76EDC0ED66EF28AF294120072
:1002EC000001BC6BB9C0E9FFBAC0EAFFEECFBBF0AE
:1002FC00BB51000A0EE0BBC0BEF00ADF0001BC2BF4
:10030C00BC51B925E96E000EBA21EA6EEECFBBF0F6
:04031C00EFD7120005
:0A0320000B0ED76EDC0ED66E120035
:0A032A00100E0001C36F86DE120002
:10033400AECF01F0ABA202D0AB98AB8801C000F005
:020344001200A5
:10034600960EE16E000EE26E1850E126D8B0E22A53
:0C035600B9C0E6FF1850010F156E120030
:1003620010D0800E0001B96F1AD0C00EB96F17D02D
:10037200940EB96F14D0D40EB96F11D0800EB96F2C
:100382000ED00001B951010AECE0B951020AEDE0C8
:10039200B951030AEDE0B951040AEDE0EFD7BA050D
:1003A200006EB951002600C0B9F000C0C3F046DEAD
:1003B200B791BD6BBD51BB25E96E000EBC21EA6E43
:1003C200EE520BE0BD51BB25E96E000EBC21EA6E78
:0E03D200EECFBEF09BDEBD2BEDD7B781120043
:1003E0003CEC06F0F28E060EC16EFF0E926E946A21
:1003F000FF0E826E948E6BDF966A84920001B66B5C
:100400005BDF966A64DFE0DE010EC36F18DE0E0E5E
:10041000C36F15DE190EAF6EAC8422DF820E0C6E38
:10042000DD0E0D6E0D2EFED70C2EFCD70000000049
:10043000560E0001B96F000EBA6F58DF5C0EB96F2F
:10044000000EBA6F53DF010EB96F010EBA6F710E55
:10045000BB6F000EBC6F85DF020EB96F010EBA6F65
:10046000470EBB6F000EBC6F7CDF100E0B6E390E9B
:100470000C6E0D0E0D6E0D2EFED70C2EFCD70B2E16
:10048000FAD700000000010EC36FD9DD020EB96F6C
:10049000010EBA6F1A0EBB6F000EBC6F62DFF28ED8
:1004A00087DE00C017F01950010A03E1176A196AC4
:1004B00064D079DE005203E03DDF00C0B8F00001F7
:1004C000B851230A0BE1800EC36FB9DD6CDE00501A
:1004D000000A01E1FBD72EDF00C0B8F00001B851DF
:1004E000240A2AE160DE00520CE024DF00C0B8F0EC
:1004F0000050230A06E0B8C0BEF009DEB8C0BEF066
:100500000DDE0001B851230AEDE1B86B280EB85D8D
:1005100005E2200EBE6FFBDDB82BF8D7020EB96FD7
:10052000010EBA6F360EBB6F000EBC6F1ADF010EE4
:10053000B86F800EC36F83DD1750000A1BE0B851FF
:10054000010A18E1020EB86F010EC36F78DD010ECB
:10055000B66F17C016F0186AB96BF5DE020EB96FE8
:10056000010EBA6F280EBB6F000EBC6FFADE800E54
:10057000C36F65DD1750000A93E0D2DE30D0310E34
:10058000176E5DD0340E176E5AD0370E176E57D0D7
:10059000530E176E54D0320E176E51D0350E176EA3
:1005A0004ED0380E176E4BD0300E176E48D0330E2B
:1005B000176E45D0360E176E42D0390E176E3FD0EB
:1005C000430E176E3CD0550E176E39D0440E176E81
:1005D00036D04D0E176E33D0450E176E30D01750F3
:1005E000010ACDE01750020ACDE01750030ACDE012
:1005F0001750040ACDE01750050ACDE01750060A3F
:10060000CDE01750070ACDE01750080ACDE017508B
:10061000090ACDE017500A0ACDE017500B0ACDE0C9
:1006200017500C0ACDE017500D0ACDE017500E0AF6
:10063000CDE017500F0ACDE01750100ACDE017504B
:10064000000A08E11750161805E00001010EB66F08
:1006500017C016F01750450A21E10001230EBE6FA6
:100660005DDD410E0C6EEE0E0D6E0D2EFED70C2EC6
:10067000FCD70000960EE16E000EE26E1550E126EA
:10068000D8B0E22AE66A240E0001966F960EB96F82
:10069000000EBA6F2BDE230EBE6F40DD1750310AFD
:1006A00023E148DD0001B651030A02E1010EB66FF5
:1006B000B651010A0BE1010EB96F18C0BAF0310E44
:1006C000BB6F42DD310EB96F3EDE0DD0B651020A6E
:1006D0000AE1010EB96F18C0BAF02E0EBB6F34DDFF
:1006E0002E0EB96F30DEB62B1750320A3FE122DDF5
:1006F0000001B651050A02E1010EB66FB651010ABA
:100700000BE1010EB96F18C0BAF0410EBB6F1CDDD2
:10071000410EB96F18DE29D0B651020A0BE1010E65
:10072000B96F18C0BAF0420EBB6F0EDD420EB96F42
:100730000ADE1BD0B651030A0BE1010EB96F18C0D7
:10074000BAF0430EBB6F00DD430EB96FFCDD0DD078
:10075000B651040A0AE1010EB96F18C0BAF0320EA0
:10076000BB6FF2DC320EB96FEEDDB62B1750330AD9
:100770003FE1E0DC0001B651050A02E1010EB66F6F
:10078000B651010A0BE1010EB96F18C0BAF0440E60
:10079000BB6FDADC440EB96FD6DD29D0B651020A40
:1007A0000BE1010EB96F18C0BAF0450EBB6FCCDC7F
:1007B000450EB96FC8DD1BD0B651030A0BE1010E1F
:1007C000B96F18C0BAF0460EBB6FBEDC460EB96FEB
:1007D000BADD0DD0B651040A0AE1010EB96F18C096
:1007E000BAF0330EBB6FB0DC330EB96FACDDB62B95
:1007F0001750340A3FE19EDC0001B651050A02E1C0
:10080000010EB66FB651010A0BE1010EB96F18C0A7
:10081000BAF0470EBB6F98DC470EB96F94DD29D054
:10082000B651020A0BE1010EB96F18C0BAF0480EBA
:10083000BB6F8ADC480EB96F86DD1BD0B651030A48
:100840000BE1010EB96F18C0BAF0490EBB6F7CDC2A
:10085000490EB96F78DD0DD0B651040A0AE1010ED8
:10086000B96F18C0BAF0340EBB6F6EDC340EB96FBE
:100870006ADDB62B1750350A3FE15CDC0001B6514A
:10088000050A02E1010EB66FB651010A0BE1010E35
:10089000B96F18C0BAF04A0EBB6F56DC4A0EB96F7A
:1008A00052DD29D0B651020A0BE1010EB96F18C012
:1008B000BAF04B0EBB6F48DC4B0EB96F44DD1BD05A
:1008C000B651030A0BE1010EB96F18C0BAF04C0E15
:1008D000BB6F3ADC4C0EB96F36DD0DD0B651040A51
:1008E0000AE1010EB96F18C0BAF0350EBB6F2CDCEF
:1008F000350EB96F28DDB62B1750360A41E11ADCE8
:100900000001B651050A02E1010EB66FB651010AA7
:100910000BE1010EB96F18C0BAF04D0EBB6F14DCBD
:100920004D0EB96F10DD2BD0B651020A0BE1010E4E
:10093000B96F18C0BAF04E0EBB6F06DC4E0EB96F21
:1009400002DD1DD0B651030A0CE1010EB96F18C0CB
:10095000BAF04F0EBB6FA4EC00F04F0EB96FF3DC92
:100960000ED0B651040A0BE1010EB96F18C0BAF0EF
:10097000360EBB6FA4EC00F0360EB96FE4DCB62B7C
:100980001750370A53E19AEC00F00001B651060AFD
:1009900002E1010EB66FB651010A0CE1010EB96F0A
:1009A00018C0BAF0500EBB6FA4EC00F0500EB96F37
:1009B000CADC3BD0B651020A0CE1010EB96F18C077
:1009C000BAF0510EBB6FA4EC00F0510EB96FBBDC56
:1009D0002CD0B651030A0CE1010EB96F18C0BAF061
:1009E000520EBB6FA4EC00F0520EB96FACDC1DD000
:1009F000B651040A0CE1010EB96F18C0BAF0530EDB
:100A0000BB6FA4EC00F0530EB96F9DDC0ED0B65155
:100A1000050A0BE1010EB96F18C0BAF0370EBB6FB3
:100A2000A4EC00F0370EB96F8EDCB62B1750380AE5
:100A300044E19AEC00F00001B651050A02E1010E12
:100A4000B66FB651010A0CE1010EB96F18C0BAF0C9
:100A5000540EBB6FA4EC00F0540EB96F74DC2CD0B4
:100A6000B651020A0CE1010EB96F18C0BAF0550E6A
:100A7000BB6FA4EC00F0550EB96F65DC1DD0B6510C
:100A8000030A0CE1010EB96F18C0BAF0560EBB6F25
:100A9000A4EC00F0560EB96F56DC0ED0B651040A25
:100AA0000BE1010EB96F18C0BAF0380EBB6FA4ECA1
:100AB00000F0380EB96F47DCB62B1750390A54E1F5
:100AC0009AEC00F00001B651060A02E1010EB66F81
:100AD000B651010A0CE1010EB96F18C0BAF0570EF9
:100AE000BB6FA4EC00F0570EB96F2DDC3CD0B651B3
:100AF000020A0CE1010EB96F18C0BAF0580EBB6FB4
:100B0000A4EC00F0580EB96F1EDC2DD0B651030ACC
:100B10000CE1010EB96F18C0BAF0590EBB6FA4EC0E
:100B200000F0590EB96F0FDC1ED0B651040A0CE16B
:100B3000010EB96F18C0BAF05A0EBB6FA4EC00F0EA
:100B40005A0EB96F00DC0FD0B651050A0CE1010E48
:100B5000B96F18C0BAF0390EBB6FA4EC00F0390EB3
:100B6000B96FA3EC01F0B62B1750300A28E19AECCC
:100B700000F00001B651030A02E1010EB66FB65152
:100B8000010A0DE1010EB96F18C0BAF0300EBB6F4B
:100B9000A4EC00F0300EB96FA3EC01F00FD0B65109
:100BA000020A0CE1010EB96F18C0BAF0200EBB6F3B
:100BB000A4EC00F0200EB96FA3EC01F0B62B175097
:100BC000430A19E11850000A16E095EC01F0010EF5
:100BD000B96F18C0BAF0200EBB6FA4EC00F0180675
:100BE00095EC01F0010EB66F17C016F0182AB96B1C
:100BF000A3EC01F018060001B651FF0AD8B4B66B99
:060C000050EF02F0FFD7E7
:100C780010EE15F0710E006E010E016E060EF66E86
:0E0C88000C0EF76E000EF86E5FEC01F012001D
:010C060001EC
:010C070000EC
:010C080000EB
:010C090000EA
:010C0A0000E9
:0E0C0B005752495445204D455353414745002B
:0E0C19005752495445204D455353414745001D
:100C27005245434549564544204D45535341474551
:010C370000BC
:0F0C3800205752495445204D45535341474500DD
:060C470048454C4C4F0033
:100C4D0020322057415920434F4D554E4943415471
:050C5D00494F4E20008C
:100C620020322057415920434F4D554E494341545C
:050C7200494F4E200077
:020000040030CA
:0D000100220F0EFF0181FF0FC00FE00F4026
:00000001FF
